:020000040000FA
:020000006D2968
:020008000728C7
:04000C0040299E01E8
:10001000583096009A019A1506190C28061C1428C7
:1000200003148030960615280310970C031C28280B
:100030001A1C2528F8300311980558301806031D9E
:1000400025281A14961398011816061925280C2825
:100050001A15180896069A1C3228031116087839C2
:10006000031D9A11F83003111806031D9A14031D7D
:100070002228980DF0309805980C980C980C9E0A40
:10008000253003119E02031D22289F01C7019E01F6
:100090001F141F0885009F141F0885009F101F084C
:1000A00085001F101F0885000730C7005030C600AC
:1000B000062125214808C6000730C7000621252152
:1000C0004908C6000730C700062125211408C600CC
:1000D0000730C700062125211308C6000730C700D6
:1000E000062125211208C6000730C7000621252158
:1000F000203084001E0784000008C900C6000730B5
:10010000C700062125219E0A03111E08203E453CFA
:10011000031D78281F141F0885009F141F088500E1
:100120001A1708001A1F9B01C6013D2135213221F3
:1001300039213D214908CB001F141F0885009F1459
:100140001F0885009F101F0885001F101F088500CD
:100150000730C7005030C600062125210030C600F8
:100160000730C700062125210030C6000730C70030
:10017000062125211F141F0885009F141F088500D4
:100180001F141F0885009F141F0885009F101F085B
:1001900085001F101F0885000730C7005130C600BA
:1001A00006212521F52007309D00E420CB0BD22825
:1001B0004908CB00CA0BD2281A131F141F08850048
:1001C0009F141F088500080003109C0C031CF228D4
:1001D0002A21352103119D03031DF42832213921E1
:1001E0003D21E4282E21E92808000830C7009C01A1
:1001F0009C0D051000000000000005140000000028
:100200000000851C1C14C70BF82808000310C60D3D
:10021000031C0C2912210D291D210311C703031DE5
:10022000072908001F109F101F0885009F141F0832
:1002300085001F141F08850008001F109F101F084D
:1002400085001F141F0885000800023085008518EE
:10025000262908009B151B08860008009B111B0817
:1002600086000800061A322908009B161B08860023
:1002700008009B161B0886000800061E3D29080082
:10028000011103119003031D6C290311103090001C
:100290009503031D6C290311003095009103031D84
:1002A0006C29031104309100920A12083C3C031D92
:1002B0006C29031100309200930A13083C3C031D83
:1002C0006C29031100309300940A1408183C031D94
:1002D0006C290311003094000800103090000030A9
:1002E00095000430910000309200003093000030FF
:0A02F0009400C801C90192207B2987
:00000001FF
